:020000000029D5
:10000800F100030EF2000B1C36287008003C03199F
:100018001A287008013C031922287008023C0319A9
:100028002A287008033C031930283D28031383123B
:10003800861C870A061CF00A0B103D28031383123E
:10004800861C8703061CF00A0B103D280313831235
:10005800061CF00A0B103D2803138312061CF0013E
:100068000B103D280B1103138312F30AB3308100E0
:0C0078003D28720E8300F10E710E09008D
:10020000031383160F178F160F120F140313831681
:10021000870105128512051385130614861403132E
:1002200083161614961403138316151495140317C6
:1002300083168801890103138316811381128111AA
:100240000115811401140313831287018501F00144
:10025000F301031383128B178B150B1003138312F7
:10026000B33081007008003C031942297008013C3A
:10027000031946297008023C03194A297008033CF7
:10028000031955298B128030850032298B1240309A
:10029000850032298B160B1120308500870A7308E0
:1002A000323C031D4F29F30132298B160B111030FC
:1002B000850087037308323C031D5A29F301322954
:04400E00D420FF3F7C
:00000001FF
